:020000040800F2
:1000000000280020E51B0008E11A0008E71A000894
:10001000ED1A0008F31A0008F91A000800000000A1
:10002000000000000000000000000000FF1A0008AF
:100030000B1B000800000000171B0008231B000812
:100040002D1C00082D1C00082D1C00082D1C00086C
:100050002D1C00082D1C00082D1C00082D1C00085C
:100060002D1C00082D1C00082D1C00082D1C00084C
:100070002D1C00082D1C00082D1C00082D1C00083C
:100080002D1C00082D1C00082D1C00082D1C00082C
:100090002D1C00082D1C00082D1C00082D1C00081C
:1000A0002D1C00082D1C00082D1C00082D1C00080C
:1000B000311B00082D1C0008000000002D1C00084A
:1000C0002D1C000800000000000000002D1C00088E
:1000D000000000002D1C00082D1C0008000000007E
:1000E0002D1C00082D1C00082D1C0008000000001D
:1000F0000000000000000000000000000000000000
:0C01000000000000000000005FF808F1A3
:10010C0010B5054C237833B9044B13B10448AFF345
:10011C0000800123237010BD70000020000000003F
:10012C005C32000808B5034B1BB103490348AFF31D
:10013C00008008BD00000000740000205C32000844
:10014C0080B483B000AF7860094A7B6852F82330E2
:10015C00012B06D1064A7B68002142F823100123AB
:10016C0000E0002318460C37BD4680BC704700BF2A
:10017C008C00002080B483B000AF7860044A7B68A8
:10018C00012142F8231000BF0C37BD4680BC7047DC
:10019C008C00002080B586B000AF00237B6112E09C
:1001AC00614A7B6952F8232060497B6941F823201E
:1001BC005F4A7B6952F823205B497B6941F8232015
:1001CC007B6901337B617B69032BE9DD0221594893
:1001DC0002F012F803461A46554B1A600421554892
:1001EC0002F00AF803461A46514B5A60082151484E
:1001FC0002F002F803461A464D4B9A604FF4004148
:10020C004C4801F0F9FF03461A46494BDA600023CB
:10021C003B614CE0454A3B6952F8232042493B691B
:10022C0051F823309A420BD13F4A3B6952F82320B4
:10023C003F493B6951F823309A4201D1012300E038
:10024C0000237B607B68002B0BD03B4A3B6952F848
:10025C00232037493B6951F823309A4201D00123BE
:10026C0000E000233B603B68002B04D0304A3B6924
:10027C0052F8233003E0304A3B6952F823302E49C0
:10028C003A6941F822303B68002B0DD0284A3B6973
:10029C0052F82330002B07D13869FFF76BFF274A40
:1002AC003B69C82142F823103B6901333B613B6930
:1002BC00032BAFDD0023FB602EE01D4AFB6852F8D8
:1002CC002330002B07D11D4AFB6852F82330002B3A
:1002DC0001D1012300E00023BB60BB68002B07D0D9
:1002EC00F868FFF747FF154AFB68C82142F823104E
:1002FC000F4AFB6852F82330002B05D10F4AFB68DC
:10030C0052F82330013B00E0C8230C49FA6841F84D
:10031C002230FB680133FB60FB68032BCDDD00BF93
:10032C0000BF1837BD4680BD100000200000002023
:10033C0020000020000C0140300000204000002074
:10034C0080B500AF944B1B68013B042B00F2198164
:10035C0001A252F823F000BF7903000893030008B0
:10036C0011040008930400080F05000800F0A0FB1E
:10037C0001F0AEF8884B02221A604FF47A7101201A
:10038C0001F0E0FB06E101F0B9F8844B1B6818465C
:10039C0000F0A4FF824B1B68184601F023F8814B38
:1003AC005B68012B15D17D4B1B68013B7B4A1360AD
:1003BC007B4B1B68013B7A4A1360794B1B68002B03
:1003CC0002D1754B03221A604FF47A71012001F0AF
:1003DC00B9FB0120FFF7B4FE0346012B40F0D3809C
:1003EC0000F066FB6C4B06221A606F49012001F08D
:1003FC00A9FB3221022001F0A5FB3221032001F0E0
:10040C00A1FBC0E001F082F8644B1B68184600F0B9
:10041C0065FF664B1B68184600F0E4FF614B5B6898
:10042C00012B17D15D4B1B68013B5C4A13605F4B82
:10043C001B68013B5D4A13605C4B1B68002B04D1AD
:10044C0001F046F8544B04221A604FF47A710120E3
:10045C0001F078FB0120FFF773FE0346012B40F0FF
:10046C00948000F025FB4C4B06221A604E4901206B
:10047C0001F068FB3221022001F064FB32210320E1
:10048C0001F060FB81E001F049F8454B1B68184610
:10049C0000F024FF414B1B68184600F0A3FF414BB2
:1004AC005B68012B15D13E4B1B68013B3C4A13602A
:1004BC003A4B1B68013B394A1360394B1B68002BC4
:1004CC0002D1354B05221A604FF47A71012001F0EC
:1004DC0039FB0120FFF734FE0346012B57D100F006
:1004EC00E7FA2D4B06221A602F49012001F02AFB56
:1004FC003221022001F026FB3221032001F022FBE5
:10050C0045E001F013F8294B1B68184600F0E6FE95
:10051C00224B1B68184600F065FF224B5B68012BD1
:10052C0017D1224B1B68013B204A13601B4B1B68E5
:10053C00013B1A4A13601D4B1B68002B04D100F0C1
:10054C00C7FF154B02221A604FF47A71012001F09B
:10055C00F9FA0120FFF7F4FD0346012B19D100F045
:10056C00A7FA0D4B06221A600F49012001F0EAFA96
:10057C003221022001F0E6FA3221032001F0E2FAE6
:10058C0007E000BF06E000BF04E000BF02E000BFD0
:10059C0000E000BF00BF80BD9C000020A400002034
:1005AC00A8000020500400203F420F00AC000020A7
:1005BC0080B500AF8E4B1B68082B00F09C80082B7D
:1005CC0000F30F81062B02D0072B4AD009E1022041
:1005DC0000F084FE874B9B68012B06D100F0AEFF28
:1005EC004FF4FA71022001F0ADFA824BDB68012B5B
:1005FC0008D1814B1B68184600F036FF32210320CE
:10060C0001F0A0FA0120FFF79BFD0346012B07D157
:10061C00794B01221A6000F04BFA754B07221A60D5
:10062C000220FFF78DFD0346012B0BD1724B1B688B
:10063C00632B02DD704B01221A606F4B1B68013378
:10064C006D4A13600320FFF77BFD0346012B40F03E
:10065C00CA80694B1B68694A1360674B01221A6098
:10066C00C1E0032000F03AFE624B9B68012B06D1DF
:10067C0000F074FF4FF47A71022001F063FA5D4BC5
:10068C00DB68012B08D15C4B1B68184600F0ECFEB4
:10069C003221032001F056FA0120FFF751FD0346E9
:1006AC00012B07D1544B01221A6000F001FA504B78
:1006BC0008221A600220FFF743FD0346012B0BD1E1
:1006CC004D4B1B68632B02DD4B4B01221A604A4BCE
:1006DC001B680133484A13600320FFF731FD0346C2
:1006EC00012B40F08280444B1B68454A1360424BFF
:1006FC0001221A6079E0042000F0F0FD3D4B9B686C
:10070C00012B06D100F03AFF4FF47A71022001F070
:10071C0019FA384BDB68012B08D1374B1B6818468C
:10072C0000F0A2FE3221032001F00CFA0120FFF7A9
:10073C0007FD0346012B0ED12F4B01221A6000F04E
:10074C00C7FE00F0B5F92A4B02221A604FF47A71F9
:10075C00012001F0F7F90220FFF7F2FC0346012B10
:10076C000BD1254B1B68632B02DD234B01221A6036
:10077C00214B1B680133204A13600320FFF7E0FC78
:10078C000346012B2DD11C4B1B681E4A13601C4BBE
:10079C001A681C4B1B681344184A1360174B1B68D0
:1007AC00002B0FD000F094FE134B01221A6000F0C6
:1007BC007FF90F4B09221A604FF47A71012001F076
:1007CC00C1F90EE000F084FE0B4B01221A6000F020
:1007DC006FF9074B02221A604FF47A71012001F075
:1007EC00B1F900BF02E000BF00E000BF00BF80BD58
:1007FC009C000020500400205000002054000020D9
:10080C00580000205C00002080B500AF9F4B1B6897
:10081C00093B042B00F22F8101A252F823F000BFF8
:10082C00410800085F080008DD080008730900088B
:10083C00EF090008964B1B68964A1360964B1B6891
:10084C00964A1360964B1B68964A13608F4B0A228C
:10085C001A6000F053FE8E4B1B68184600F03EFDEC
:10086C008D4B1B68184600F0BDFD8F4B5B68012B50
:10087C0015D1874B1B68013B854A1360864B1B685F
:10088C00013B854A1360844B1B68002B02D17F4BC4
:10089C000B221A604FF47A71012001F053F90120F8
:1008AC00FFF74EFC0346012B40F0E78000F000F907
:1008BC00764B06221A607D49012001F043F9322162
:1008CC00022001F03FF93221032001F03BF9D4E082
:1008DC0000F01CFE6E4B1B68184600F0FFFC704BC2
:1008EC001B68184600F07EFD6F4B5B68012B21D115
:1008FC00674B1B68013B664A1360694B1B68013BE5
:10090C00674A1360664B1B68002B0ED1614B1B684A
:10091C005F4A1360614B1B685F4A1360614B1B6835
:10092C005F4A1360594B0C221A604FF47A71012004
:10093C0001F008F90120FFF703FC0346012B40F0FE
:10094C009E8000F0B5F8514B06221A6057490120E1
:10095C0001F0F8F83221022001F0F4F832210320E2
:10096C0001F0F0F88BE000F0D9FD4B4B1B681846FA
:10097C0000F0B4FC464B1B68184600F033FD4A4BA4
:10098C005B68012B15D1444B1B68013B424A136039
:10099C003F4B1B68013B3E4A13603F4B1B68002BCF
:1009AC0002D13A4B0D221A604FF47A71012001F0FA
:1009BC00C9F80120FFF7C4FB0346012B61D100F0FD
:1009CC0077F8324B06221A603849012001F0BAF848
:1009DC003221022001F0B6F83221032001F0B2F8E6
:1009EC004FE000F0A3FD2E4B1B68184600F076FC80
:1009FC00274B1B68184600F0F5FC2B4B5B68012B52
:100A0C0021D1274B1B68013B254A1360204B1B68E7
:100A1C00013B1F4A1360224B1B68002B0ED11D4B50
:100A2C001B681B4A13601D4B1B681B4A13601D4B34
:100A3C001B681B4A1360154B0A221A604FF47A711B
:100A4C00012001F07FF80120FFF77AFB0346012B10
:100A5C0019D100F02DF80D4B06221A601349012014
:100A6C0001F070F83221022001F06CF832210320E1
:100A7C0001F068F807E000BF06E000BF04E000BF2B
:100A8C0002E000BF00E000BF00BF80BD9C00002062
:100A9C0054000020B000002058000020B4000020BA
:100AAC005C000020B8000020500400203F420F00E2
:100ABC0080B500AF00224FF48071114801F0B3FBF8
:100ACC0000224FF400710E4801F0ADFB00224FF4F0
:100ADC0080610B4801F0A7FB00224FF4006108482D
:100AEC0001F0A1FB00224FF48051054801F09BFB63
:100AFC0000224FF40051024801F095FB00BF80BD6D
:100B0C00000C014080B500AF01224FF48071084801
:100B1C0001F089FB00224FF40071054801F083FBC2
:100B2C0000224FF48061024801F07DFB00BF80BDC4
:100B3C00000C014080B500AF00224FF480710848D2
:100B4C0001F071FB01224FF40071054801F06BFBC1
:100B5C0000224FF48061024801F065FB00BF80BDAC
:100B6C00000C014080B500AF00224FF480710848A2
:100B7C0001F059FB00224FF40071054801F053FBC2
:100B8C0001224FF48061024801F04DFB00BF80BD93
:100B9C00000C014080B500AF01224FF40061084801
:100BAC0001F041FB00224FF48051054801F03BFB62
:100BBC0000224FF40051024801F035FB00BF80BD0C
:100BCC00000C014080B500AF00224FF400610848D2
:100BDC0001F029FB01224FF48051054801F023FB61
:100BEC0000224FF40051024801F01DFB00BF80BDF4
:100BFC00000C014080B500AF00224FF400610848A2
:100C0C0001F011FB00224FF48051054801F00BFB61
:100C1C0001224FF40051024801F005FB00BF80BDDA
:100C2C00000C014080B500AF00221021094801F0F2
:100C3C00FAFA00222021074801F0F5FA002240219F
:100C4C00044801F0F0FA00228021024801F0EBFA8E
:100C5C0000BF80BD0008014080B500AF012210210B
:100C6C00094801F0E0FA00222021074801F0DBFAE4
:100C7C0000224021044801F0D6FA002280210248CB
:100C8C0001F0D1FA00BF80BD0008014080B500AF73
:100C9C0000221021094801F0C6FA01222021074840
:100CAC0001F0C1FA00224021044801F0BCFA0022F4
:100CBC008021024801F0B7FA00BF80BD0008014056
:100CCC0080B500AF01221021094801F0ACFA0122D5
:100CDC002021074801F0A7FA00224021044801F026
:100CEC00A2FA00228021024801F09DFA00BF80BDCB
:100CFC000008014080B500AF00221021094801F026
:100D0C0092FA00222021074801F08DFA012240219D
:100D1C00044801F088FA00228021024801F083FA8D
:100D2C0000BF80BD0008014080B500AF012210213A
:100D3C00094801F078FA00222021074801F073FAE3
:100D4C0001224021044801F06EFA00228021024861
:100D5C0001F069FA00BF80BD0008014080B500AF0A
:100D6C0000221021094801F05EFA012220210748D7
:100D7C0001F059FA01224021044801F054FA0022F2
:100D8C008021024801F04FFA00BF80BD00080140ED
:100D9C0080B500AF01221021094801F044FA01226C
:100DAC002021074801F03FFA01224021044801F0BC
:100DBC003AFA00228021024801F035FA00BF80BDCA
:100DCC000008014080B500AF00221021094801F055
:100DDC002AFA00222021074801F025FA002240219E
:100DEC00044801F020FA01228021024801F01BFA8C
:100DFC0000BF80BD0008014080B500AF012210216A
:100E0C00094801F010FA00222021074801F00BFAE2
:100E1C0000224021044801F006FA012280210248F8
:100E2C0001F001FA00BF80BD0008014080B500AFA1
:100E3C0000224FF480710B4801F0F5F900224FF4B9
:100E4C000071084801F0EFF900224FF48061054869
:100E5C0001F0E9F900224FF40061024801F0E3F9D6
:100E6C0000BF80BD0008014080B500AF01224FF4E7
:100E7C0080710B4801F0D7F900224FF4007108483B
:100E8C0001F0D1F900224FF48061054801F0CBF953
:100E9C0000224FF40061024801F0C5F900BF80BD8B
:100EAC000008014080B500AF00224FF480710B4860
:100EBC0001F0B9F901224FF40071084801F0B3F9BF
:100ECC0000224FF48061054801F0ADF900224FF487
:100EDC000061024801F0A7F900BF80BD0008014085
:100EEC0080B500AF01224FF480710B4801F09BF9E3
:100EFC0001224FF40071084801F095F900224FF4DB
:100F0C008061054801F08FF900224FF4006102481E
:100F1C0001F089F900BF80BD0008014080B500AF29
:100F2C0000224FF480710B4801F07DF900224FF440
:100F3C000071084801F077F901224FF480610548EF
:100F4C0001F071F900224FF40061024801F06BF9D5
:100F5C0000BF80BD0008014080B500AF01224FF4F6
:100F6C0080710B4801F05FF900224FF400710848C2
:100F7C0001F059F901224FF48061054801F053F951
:100F8C0000224FF40061024801F04DF900BF80BD12
:100F9C000008014080B500AF00224FF480710B486F
:100FAC0001F041F901224FF40071084801F03BF9BE
:100FBC0001224FF48061054801F035F900224FF40D
:100FCC000061024801F02FF900BF80BD000801400C
:100FDC0080B500AF01224FF480710B4801F023F96A
:100FEC0001224FF40071084801F01DF901224FF461
:100FFC008061054801F017F900224FF400610248A6
:10100C0001F011F900BF80BD0008014080B500AFB0
:10101C0000224FF480710B4801F005F900224FF4C7
:10102C000071084801F0FFF800224FF48061054878
:10103C0001F0F9F801224FF40061024801F0F3F8D5
:10104C0000BF80BD0008014080B500AF01224FF405
:10105C0080710B4801F0E7F800224FF4007108484A
:10106C0001F0E1F800224FF48061054801F0DBF853
:10107C0001224FF40061024801F0D5F800BF80BD99
:10108C000008014080B500AF00224FF480510B489E
:10109C0001F0C9F800224FF40051084801F0C3F8E0
:1010AC0000224FF48041054801F0BDF800224FF4B6
:1010BC000041024801F0B7F800BF80BD00080140B4
:1010CC0080B500AF01224FF480510B4801F0ABF812
:1010DC0000224FF40051084801F0A5F800224FF40B
:1010EC008041054801F09FF800224FF4004102486E
:1010FC0001F099F800BF80BD0008014080B500AF39
:10110C0000224FF480510B4801F08DF801224FF46E
:10111C000051084801F087F800224FF4804105483F
:10112C0001F081F800224FF40041024801F07BF8F5
:10113C0000BF80BD0008014080B500AF01224FF414
:10114C0080510B4801F06FF801224FF40051084810
:10115C0001F069F800224FF48041054801F063F872
:10116C0000224FF40041024801F05DF800BF80BD41
:10117C000008014080B500AF00224FF480510B48AD
:10118C0001F051F800224FF40051084801F04BF8DF
:10119C0001224FF48041054801F045F800224FF43C
:1011AC000041024801F03FF800BF80BD000801403B
:1011BC0080B500AF01224FF480510B4801F033F899
:1011CC0000224FF40051084801F02DF801224FF491
:1011DC008041054801F027F800224FF400410248F5
:1011EC0001F021F800BF80BD0008014080B500AFC0
:1011FC0000224FF480510B4801F015F801224FF4F6
:10120C000051084801F00FF801224FF480410548C5
:10121C0001F009F800224FF40041024801F003F8F4
:10122C0000BF80BD0008014080B500AF01224FF423
:10123C0080510B4800F0F7FF01224FF40051084891
:10124C0000F0F1FF01224FF48041054800F0EBFF64
:10125C0000224FF40041024800F0E5FF00BF80BDC2
:10126C000008014080B500AF00224FF480510B48BC
:10127C0000F0D9FF00224FF40051084800F0D3FFD2
:10128C0000224FF48041054800F0CDFF01224FF4BD
:10129C000041024800F0C7FF00BF80BD00080140BC
:1012AC0080B500AF01224FF480510B4800F0BBFF1A
:1012BC0000224FF40051084800F0B5FF00224FF413
:1012CC008041054800F0AFFF01224FF40041024875
:1012DC0000F0A9FF00BF80BD0008014080B582B0BE
:1012EC0000AF78607B68092B34D801A252F823F048
:1012FC00251300082B1300083113000837130008BE
:10130C003D13000843130008491300084F1300084D
:10131C00551300085B130008FFF784FC1BE0FFF774
:10132C009BFC18E0FFF7B2FC15E0FFF7C9FC12E0DC
:10133C00FFF7E0FC0FE0FFF7F7FC0CE0FFF70EFD0A
:10134C0009E0FFF725FD06E0FFF73CFD03E0FFF7A2
:10135C0053FD00E000BF00BF0837BD4680BD00BF95
:10136C0080B582B000AF78607B68092B34D801A2BD
:10137C0052F823F0A9130008AF130008B5130008A6
:10138C00BB130008C1130008C7130008CD130008D5
:10139C00D3130008D9130008DF130008FFF746FD2C
:1013AC001BE0FFF761FD18E0FFF77CFD15E0FFF790
:1013BC0097FD12E0FFF7B2FD0FE0FFF7CDFD0CE05B
:1013CC00FFF7E8FD09E0FFF703FE06E0FFF71EFE5E
:1013DC0003E0FFF739FE00E000BF00BF0837BD4651
:1013EC0080BD00BF80B582B000AF78607B68092BF0
:1013FC0034D801A252F823F02D140008331400083D
:10140C00391400083F140008451400084B14000858
:10141C0051140008571400085D14000863140008E8
:10142C00FFF730FE1BE0FFF74BFE18E0FFF766FE00
:10143C0015E0FFF781FE12E0FFF79CFE0FE0FFF7CF
:10144C00B7FE0CE0FFF7D2FE09E0FFF7EDFE06E079
:10145C00FFF708FF03E0FFF723FF00E000BF00BF2A
:10146C000837BD4680BD00BF80B582B000AF786044
:10147C00154B1B68002B02D0012B0ED020E07B6893
:10148C00124A82FB03129210DB17D31A1846FFF78D
:10149C0067FF0D4B01221A6012E07A680B4B83FB3D
:1014AC0002139910D317C91A0B469B000B445B000F
:1014BC00D11A0846FFF796FF034B00221A6000BFB3
:1014CC0000BF0837BD4680BDA00000206766666679
:1014DC0080B400AF064B05221A60064B03221A603B
:1014EC00054B02221A6000BFBD4680BC704700BF8E
:1014FC00A4000020A8000020AC00002080B500AFA4
:10150C00FFF700FBFFF75EFB00BF80BD80B500AFAF
:10151C00FFF7F8FAFFF76EFB00BF80BD80B500AF98
:10152C00FFF708FBFFF736FB00BF80BD80B500AFAF
:10153C00FFF718FBFFF72EFB00BF80BD80B500AF97
:10154C004FF48071044800F086FE4FF400610248AD
:10155C0000F081FE00BF80BD000C014080B500AFE3
:10156C004FF40071044800F076FE4FF480510248AD
:10157C0000F071FE00BF80BD000C014080B500AFD3
:10158C004FF48061044800F066FE4FF400510248AD
:10159C0000F061FE00BF80BD000C014080B500AFC3
:1015AC0000F040FB00F034F800F0BAF800F06CF8F2
:1015BC000B4801F095FA0B4B01221A6064220021B2
:1015CC00094800F039F901220021084800F034F9EB
:1015DC0001220021064800F02FF900F0E3F9FCE7A6
:1015EC00C00000209C0000204D030008BD05000831
:1015FC001508000880B582B000AF786000F072F971
:10160C0000F0BEFAFEF7C6FD00BF0837BD4680BD30
:10161C0080B590B000AF07F11803282200211846BE
:10162C0001F00EFE3B1D00221A605A609A60DA60CF
:10163C001A610223BB610123BB621023FB620023EE
:10164C007B6307F11803184600F01EFE0346002BBF
:10165C0001D000F0EBF80F237B600023BB6000236C
:10166C00FB6000233B6100237B613B1D002118467E
:10167C0001F08AF80346002B01D000F0D7F800BF28
:10168C004037BD4680BD000080B586B000AF07F185
:10169C00080300221A605A609A60DA603B46002206
:1016AC001A605A601D4B4FF080421A601B4B41F67A
:1016BC003F725A60194B00229A60184B0922DA606B
:1016CC00164B00221A61154B00229A61134801F047
:1016DC00B7F90346002B01D000F0A8F84FF4805363
:1016EC00BB6007F1080319460C4801F035FB0346B3
:1016FC00002B01D000F09AF800233B6000237B60A4
:10170C003B461946054801F00DFD0346002B01D060
:10171C0000F08CF800BF1837BD4680BDC00000201B
:10172C0080B588B000AF07F1100300221A605A6030
:10173C009A60DA60394B9B69384A43F01003936125
:10174C00364B9B6903F01003FB60FB68334B9B69C2
:10175C00324A43F004039361304B9B6903F004035A
:10176C00BB60BB682D4B9B692C4A43F0080393610B
:10177C002A4B9B6903F008037B607B6800224FF4C3
:10178C000051274800F04FFD00224FF6FF7125480D
:10179C0000F049FD002247F6F171234800F043FDAB
:1017AC004FF400533B6101237B610023BB61022397
:1017BC00FB6107F110031946194800F0A3FB4FF623
:1017CC00FF733B6101237B610023BB610223FB613F
:1017DC0007F110031946134800F094FB47F6F17318
:1017EC003B6101237B610023BB610223FB6107F199
:1017FC00100319460C4800F085FB48F20E033B61C0
:10180C0000237B610123BB6107F1100319460648D5
:10181C0000F078FB00BF2037BD4680BD00100240B1
:10182C000010014000080140000C014080B400AFE2
:10183C0072B600BFFEE7000080B485B000AFF86060
:10184C00B9607A60254B1B78272B42D8234B1B7829
:10185C001946234A0B469B000B449B001344FA6821
:10186C001A601E4B1B7819461D4A0B469B000B44F5
:10187C009B0013440433BA681A60184B1B78194642
:10188C00174A0B469B000B449B00134408337A68A1
:10189C001A60124B1B781946114A0B469B000B44DD
:1018AC009B0013440C3300221A700C4B1A780B4B10
:1018BC001B78194610460A4A0B469B000B449B00AA
:1018CC00134410331860054B1B780133DAB2034B09
:1018DC001A7000BF1437BD4680BC7047BC00002096
:1018EC000801002080B483B000AF00237B6048E087
:1018FC002A497A6813469B0013449B000B4404331B
:10190C001B68002B13D025497A6813469B0013449F
:10191C009B000B4404331B68591E20487A681346FD
:10192C009B0013449B0003440433196026E01B49BD
:10193C007A6813469B0013449B000B4408331968C8
:10194C0016487A6813469B0013449B0003440433E7
:10195C00196012497A6813469B0013449B000B4490
:10196C000C331B780133D8B20C497A6813469B00B0
:10197C0013449B000B440C3302461A707B680133F2
:10198C007B60074B1B781A467B689342B0DB00BF29
:10199C0000BF0C37BD4680BC704700BF080100205B
:1019AC00BC00002080B582B000AF00237B602BE030
:1019BC001B497A6813469B0013449B000B440C3361
:1019CC001B78002B1DD016497A6813469B001344D4
:1019DC009B000B440C331B78013BD8B210497A683E
:1019EC0013469B0013449B000B440C3302461A70A5
:1019FC000B497A6813469B0013449B000B441B68ED
:101A0C0098477B6801337B60064B1B781A467B68D2
:101A1C009342CDDB00BF00BF0837BD4680BD00BF81
:101A2C0008010020BC00002080B485B000AF154B2D
:101A3C009B69144A43F001039361124B9B6903F0B9
:101A4C000103BB60BB680F4BDB690E4A43F080534C
:101A5C00D3610C4BDB6903F080537B607B680A4BD2
:101A6C005B68FB60FB6823F0E063FB60FB6843F0A2
:101A7C008063FB60044AFB68536000BF1437BD46AB
:101A8C0080BC7047001002400000014080B584B05B
:101A9C0000AF78607B681B68B3F1804F13D10C4B9F
:101AAC00DB690B4A43F00103D361094BDB6903F09B
:101ABC000103FB60FB68002200211C2000F0EBF905
:101ACC001C2000F004FA00BF1037BD4680BD00BFDB
:101ADC000010024080B400AFFEE780B400AFFEE718
:101AEC0080B400AFFEE780B400AFFEE780B400AF77
:101AFC00FEE780B400AF00BFBD4680BC704780B429
:101B0C0000AF00BFBD4680BC704780B400AF00BFC3
:101B1C00BD4680BC704780B500AF00F0C9F800BF6F
:101B2C0080BD000080B500AF024801F025F800BF71
:101B3C0080BD00BFC000002080B400AF00BFBD4618
:101B4C0080BC704780B483B000AF78603960094ABC
:101B5C007B68002142F82310074B1B683A6892FB04
:101B6C00F3F206497B6841F8232000BF0C37BD46D1
:101B7C0080BC704750040020640000202804002022
:101B8C0080B483B000AF00237B6017E0104A7B6801
:101B9C0052F82330002B09DD0D4A7B6852F82330B4
:101BAC005A1E0B497B6841F8232004E0094A7B68E4
:101BBC00012142F823107B6801337B607B68092B81
:101BCC00E4DD00BF00BF0C37BD4680BC704700BFD2
:101BDC002804002050040020FFF7AEFF0B480C49EE
:101BEC000C4A002302E0D458C4500433C4188C426D
:101BFC00F9D3094A094C002301E013600432A242D4
:101C0C00FBD301F0F9FAFFF7C9FC70470000002084
:101C1C0070000020A0320008700000207C0400201E
:101C2C00FEE7000080B500AF084B1B68074A43F085
:101C3C0010031360032000F023F90F2000F008F8C4
:101C4C00FFF7F2FE0023184680BD00BF00200240C3
:101C5C0080B582B000AF7860124B1A68124B1B78BB
:101C6C0019464FF47A73B3FBF1F3B2FBF3F3184656
:101C7C0000F03BF90346002B01D001230EE07B68FA
:101C8C000F2B0AD8002279684FF0FF3000F003F9CF
:101C9C00064A7B681360002300E0012318460837CE
:101CAC00BD4680BD600000206C0000206800002054
:101CBC0080B400AF054B1B781A46054B1B681344C8
:101CCC00034A136000BFBD4680BC70476C00002007
:101CDC007804002080B400AF024B1B681846BD4648
:101CEC0080BC70477804002080B485B000AF786069
:101CFC007B6803F00703FB600C4BDB68BB60BA68C6
:101D0C004FF6FF031340BB60FB681A02BB6813431A
:101D1C0043F0BF6343F40033BB60044ABB68D36039
:101D2C0000BF1437BD4680BC704700BF00ED00E01B
:101D3C0080B400AF044BDB681B0A03F007031846A2
:101D4C00BD4680BC704700BF00ED00E080B483B09E
:101D5C0000AF0346FB7197F90730002B0BDBFB79C7
:101D6C0003F01F02064997F907305B09012000FABE
:101D7C0002F241F8232000BF0C37BD4680BC7047EF
:101D8C0000E100E080B483B000AF03463960FB7122
:101D9C0097F90730002B0ADB3B68DAB20C4997F94C
:101DAC0007301201D2B20B4483F800230AE03B68DF
:101DBC00DAB20849FB7903F00F03043B1201D2B2EB
:101DCC000B441A7600BF0C37BD4680BC704700BF71
:101DDC0000E100E000ED00E080B489B000AFF860F5
:101DEC00B9607A60FB6803F00703FB61FB69C3F120
:101DFC000703042B28BF0423BB61FB690433062BA8
:101E0C0002D9FB69033B00E000237B614FF0FF32FA
:101E1C00BB6902FA03F3DA43BB681A407B699A4048
:101E2C004FF0FF317B6901FA03F3D9437B680B4018
:101E3C00134318462437BD4680BC704780B582B02A
:101E4C0000AF78607B68013BB3F1807F01D3012345
:101E5C000FE00A4A7B68013B53600F214FF0FF30C3
:101E6C00FFF790FF054B00229A60044B07221A6083
:101E7C00002318460837BD4680BD00BF10E000E0C7
:101E8C0080B582B000AF78607868FFF72DFF00BF97
:101E9C000837BD4680BD80B586B000AF0346B9603B
:101EAC007A60FB7300237B61FFF742FF78617A68ED
:101EBC00B9687869FFF790FF024697F90F30114621
:101ECC001846FFF75FFF00BF1837BD4680BD80B5D1
:101EDC0082B000AF0346FB7197F907301846FFF745
:101EEC0035FF00BF0837BD4680BD80B582B000AF5E
:101EFC0078607868FFF7A2FF034618460837BD469E
:101F0C0080BD000080B48BB000AF786039600023D6
:101F1C007B6200233B6248E101227B6A02FA03F3F5
:101F2C00FB613B681B68FA691340BB61BA69FB69CA
:101F3C009A4240F037813B685B68A34A93425ED07B
:101F4C00A14A934275D8A14A934258D09F4A9342D2
:101F5C006FD89F4A934252D09D4A934269D89D4A6A
:101F6C0093424CD09B4A934263D89B4A934246D0AF
:101F7C00994A93425DD8122B2AD8122B59D801A218
:101F8C0052F823F00B200008E51F0008F71F00088B
:101F9C00392000083F2000083F2000083F2000089F
:101FAC003F2000083F2000083F2000083F20000889
:101FBC003F2000083F2000083F2000083F20000879
:101FCC003F2000083F200008ED1F000801200008FA
:101FDC00824A934213D02CE03B68DB683B6229E0D9
:101FEC003B68DB6804333B6224E03B68DB68083306
:101FFC003B621FE03B68DB680C333B621AE03B68DA
:10200C009B68002B02D104233B6213E03B689B6866
:10201C00012B05D108233B627B68FA691A6109E040
:10202C0008233B627B68FA695A6103E000233B6238
:10203C0000E000BFBB69FF2B01D87B6801E07B6827
:10204C0004337B61BB69FF2B02D87B6A9B0002E0E7
:10205C007B6A083B9B003B617B691A680F213B69DB
:10206C0001FA03F3DB431A40396A3B6901FA03F3C3
:10207C001A437B691A603B685B6803F08053002B42
:10208C0000F09080564B9B69554A43F001039361D5
:10209C00534B9B6903F00103BB60BB68514A7B6ADD
:1020AC009B08023352F82330FB607B6A03F0030376
:1020BC009B000F2202FA03F3DB43FA681340FB6028
:1020CC007B68494A93420DD07B68484A934207D0BB
:1020DC007B68474A934201D1022304E0032302E0C8
:1020EC00012300E000237A6A02F00302920093407D
:1020FC00FA681343FB603B497B6A9B080233FA681E
:10210C0041F823203B685B6803F48013002B06D056
:10211C00384B9A683749BB6913438B6006E0354BE3
:10212C009A68BB69DB43334913408B603B685B683F
:10213C0003F40013002B06D02E4BDA682D49BB6933
:10214C001343CB6006E02B4BDA68BB69DB432949B0
:10215C001340CB603B685B6803F40033002B06D064
:10216C00244B5A682349BB6913434B6006E0214B4F
:10217C005A68BB69DB431F4913404B603B685B6883
:10218C0003F48033002B06D01A4B1A681949BB692B
:10219C0013430B6006E0174B1A68BB69DB43154908
:1021AC0013400B607B6A01337B623B681A687B6A65
:1021BC0022FA03F3002B7FF4AFAE00BF00BF2C3725
:1021CC00BD4680BC704700BF0000321000003110CB
:1021DC00000022100000211000001210000011104D
:1021EC00001002400000014000080140000C0140BA
:1021FC00001001400004014080B485B000AF78604D
:10220C000B467B807B689A687B881340002B02D03E
:10221C000123FB7301E00023FB73FB7B184614378F
:10222C00BD4680BC704780B483B000AF78600B466D
:10223C007B8013467B707B78002B03D07A887B687D
:10224C001A6103E07B881A047B681A6100BF0C37A3
:10225C00BD4680BC704780B485B000AF78600B463B
:10226C007B807B68DB68FB607A88FB6813401A0410
:10227C00FB68D9437B880B401A437B681A6100BF0B
:10228C001437BD4680BC704780B586B000AF78600F
:10229C007B68002B01D101236CE27B681B6803F087
:1022AC000103002B00F08780924B5B6803F00C035A
:1022BC00042B0CD08F4B5B6803F00C03082B12D152
:1022CC008C4B5B6803F48033B3F5803F0BD1894BA7
:1022DC001B6803F40033002B6CD07B685B68002B0D
:1022EC0068D1012346E27B685B68B3F5803F06D179
:1022FC00804B1B687F4A43F4803313602EE07B686D
:10230C005B68002B0CD17B4B1B687A4A23F480331F
:10231C001360784B1B68774A23F4802313601DE00D
:10232C007B685B68B3F5A02F0CD1724B1B68714AAC
:10233C0043F4802313606F4B1B686E4A43F4803365
:10234C0013600BE06B4B1B686A4A23F480331360F9
:10235C00684B1B68674A23F4802313607B685B68B7
:10236C00002B13D0FFF7B6FC386108E0FFF7B2FC86
:10237C0002463B69D31A642B01D90323FAE15D4B66
:10238C001B6803F40033002BF0D014E0FFF7A2FC21
:10239C00386108E0FFF79EFC02463B69D31A642BB8
:1023AC0001D90323E6E1534B1B6803F40033002BE4
:1023BC00F0D100E000BF7B681B6803F00203002B28
:1023CC0063D04C4B5B6803F00C03002B0BD0494BD8
:1023DC005B6803F00C03082B1CD1464B5B6803F4C1
:1023EC008033002B16D1434B1B6803F00203002BE8
:1023FC0005D07B681B69012B01D00123BAE13D4B51
:10240C001B6823F0F8027B685B69DB0039491343D6
:10241C000B603AE07B681B69002B20D0364B012205
:10242C001A60FFF757FC386108E0FFF753FC0246CF
:10243C003B69D31A022B01D903239BE12D4B1B685B
:10244C0003F00203002BF0D02A4B1B6823F0F80298
:10245C007B685B69DB00274913430B6015E0264B57
:10246C0000221A60FFF736FC386108E0FFF732FCF7
:10247C0002463B69D31A022B01D903237AE11D4B87
:10248C001B6803F00203002BF0D17B681B6803F080
:10249C000803002B3AD07B689B69002B19D0174B93
:1024AC0001221A60FFF716FC386108E0FFF712FCF6
:1024BC0002463B69D31A022B01D903235AE10D4B77
:1024CC005B6A03F00203002BF0D0012000F09AFAB3
:1024DC001CE00A4B00221A60FFF7FCFB38610FE08E
:1024EC00FFF7F8FB02463B69D31A022B08D90323EA
:1024FC0040E100BF00100240000042428004424212
:10250C009E4B5B6A03F00203002BE9D17B681B68CE
:10251C0003F00403002B00F0A6800023FB75974BFF
:10252C00DB6903F08053002B0DD1944BDB69934A8C
:10253C0043F08053D361914BDB6903F08053BB6054
:10254C00BB680123FB758E4B1B6803F48073002B57
:10255C0018D18B4B1B688A4A43F480731360FFF7C6
:10256C00B9FB386108E0FFF7B5FB02463B69D31AAB
:10257C00642B01D90323FDE0814B1B6803F48073AA
:10258C00002BF0D07B68DB68012B06D17B4B1B6AE0
:10259C007A4A43F0010313622DE07B68DB68002B61
:1025AC000CD1764B1B6A754A23F001031362734BF3
:1025BC001B6A724A23F0040313621CE07B68DB681D
:1025CC00052B0CD16D4B1B6A6C4A43F00403136250
:1025DC006A4B1B6A694A43F0010313620BE0674BB9
:1025EC001B6A664A23F001031362644B1B6A634A3D
:1025FC0023F0040313627B68DB68002B15D0FFF714
:10260C0069FB38610AE0FFF765FB02463B69D31AA8
:10261C0041F28832934201D90323ABE0574B1B6A3A
:10262C0003F00203002BEED014E0FFF753FB3861EC
:10263C000AE0FFF74FFB02463B69D31A41F288329E
:10264C00934201D9032395E04C4B1B6A03F0020320
:10265C00002BEED1FB7D012B05D1484BDB69474AA2
:10266C0023F08053D3617B68DB69002B00F0818001
:10267C00424B5B6803F00C03082B61D07B68DB6971
:10268C00022B46D13F4B00221A60FFF723FB386127
:10269C0008E0FFF71FFB02463B69D31A022B01D956
:1026AC00032367E0354B1B6803F00073002BF0D15C
:1026BC007B681B6AB3F5803F08D1304B5B6823F411
:1026CC0000327B689B682D4913434B602B4B5B6836
:1026DC0023F474127B68196A7B685B6A0B43274985
:1026EC0013434B60274B01221A60FFF7F3FA386152
:1026FC0008E0FFF7EFFA02463B69D31A022B01D927
:10270C00032337E01D4B1B6803F00073002BF0D044
:10271C002FE01C4B00221A60FFF7DCFA386108E04E
:10272C00FFF7D8FA02463B69D31A022B01D90323CF
:10273C0020E0124B1B6803F00073002BF0D118E063
:10274C007B68DB69012B01D1012313E00B4B5B6828
:10275C00FB60FB6803F480327B681B6A9A4206D1EB
:10276C00FB6803F470127B685B6A9A4201D0012308
:10277C0000E0002318461837BD4680BD001002400B
:10278C00007000406000424280B584B000AF7860B9
:10279C0039607B68002B01D10123D0E06A4B1B68A8
:1027AC0003F007033A689A4210D9674B1B6823F071
:1027BC00070265493B6813430B60634B1B6803F0CE
:1027CC0007033A689A4201D00123B8E07B681B6882
:1027DC0003F00203002B20D07B681B6803F004037A
:1027EC00002B05D0594B5B68584A43F4E0635360A7
:1027FC007B681B6803F00803002B05D0534B5B6808
:10280C00524A43F460535360504B5B6823F0F00220
:10281C007B689B684D4913434B607B681B6803F0D6
:10282C000103002B40D07B685B68012B07D1474B21
:10283C001B6803F40033002B15D101237FE07B6868
:10284C005B68022B07D1414B1B6803F00073002B14
:10285C0009D1012373E03D4B1B6803F00203002BED
:10286C0001D101236BE0394B5B6823F003027B68D9
:10287C005B68364913434B60FFF72CFAF8600AE0AB
:10288C00FFF728FA0246FB68D31A41F288329342CA
:10289C0001D9032353E02D4B5B6803F00C027B68DA
:1028AC005B689B009A42EBD1274B1B6803F0070334
:1028BC003A689A4210D2244B1B6823F00702224933
:1028CC003B6813430B60204B1B6803F007033A680B
:1028DC009A4201D0012332E07B681B6803F00403A9
:1028EC00002B08D0194B5B6823F4E0627B68DB6833
:1028FC00164913434B607B681B6803F00803002BDD
:10290C0009D0124B5B6823F460527B681B69DB00B7
:10291C000E4913434B6000F021F802460B4B5B68E9
:10292C001B0903F00F030A49CB5C22FA03F3094A93
:10293C001360094B1B681846FFF78AF900231846E9
:10294C001037BD4680BD00BF002002400010024081
:10295C0074320008600000206800002080B487B04A
:10296C0000AF0023FB600023BB6000237B610023CE
:10297C007B6000233B611E4B5B68FB60FB6803F0D4
:10298C000C03042B02D0082B03D027E0194B3B611E
:10299C0027E0FB689B0C03F00F03174AD35C7B60AA
:1029AC00FB6803F48033002B10D0114B5B685B0C7D
:1029BC0003F00103114AD35CBB607B680D4A02FB38
:1029CC0003F2BB68B2FBF3F37B6104E07B680C4A57
:1029DC0002FB03F37B617B693B6102E0054B3B61CE
:1029EC0000BF3B6918461C37BD4680BC704700BF12
:1029FC000010024000127A00843200089432000861
:102A0C0000093D0080B485B000AF78600A4B1B68AC
:102A1C000A4AA2FB03235B0A7A6802FB03F3FB60FE
:102A2C0000BFFB685A1EFA60002BF9D100BF00BF33
:102A3C001437BD4680BC704760000020D34D621037
:102A4C0080B582B000AF78607B68002B01D1012388
:102A5C0041E07B6893F83D30DBB2002B06D17B68FC
:102A6C00002283F83C207868FFF710F87B6802227C
:102A7C0083F83D207B681A687B680433194610463E
:102A8C0000F056FA7B68012283F846207B6801220D
:102A9C0083F83E207B68012283F83F207B6801226B
:102AAC0083F840207B68012283F841207B68012257
:102ABC0083F842207B68012283F843207B68012243
:102ACC0083F844207B68012283F845207B6801222F
:102ADC0083F83D20002318460837BD4680BD000012
:102AEC0080B485B000AF78607B6893F83D30DBB282
:102AFC00012B01D0012335E07B68022283F83D20B5
:102B0C007B681B68DA687B681B6842F00102DA603C
:102B1C007B681B68164A934209D07B681B68B3F12B
:102B2C00804F04D07B681B68124A934211D17B689A
:102B3C001B689B6803F00703FB60FB68062B10D037
:102B4C007B681B681A687B681B6842F001021A607C
:102B5C0007E07B681B681A687B681B6842F00102FF
:102B6C001A60002318461437BD4680BC704700BF5E
:102B7C00002C01400004004080B584B000AF7860A8
:102B8C007B681B68DB68FB607B681B681B69BB6030
:102B9C00BB6803F00203002B20D0FB6803F0020398
:102BAC00002B1BD07B681B686FF002021A617B68DC
:102BBC0001221A777B681B689B6903F00303002BC7
:102BCC0003D0786800F098F905E0786800F08BF98C
:102BDC00786800F09AF97B6800221A77BB6803F0DA
:102BEC000403002B20D0FB6803F00403002B1BD044
:102BFC007B681B686FF004021A617B6802221A77EB
:102C0C007B681B689B6903F44073002B03D07868C6
:102C1C0000F072F905E0786800F065F9786800F06A
:102C2C0074F97B6800221A77BB6803F00803002B49
:102C3C0020D0FB6803F00803002B1BD07B681B68BB
:102C4C006FF008021A617B6804221A777B681B6894
:102C5C00DB6903F00303002B03D0786800F04CF918
:102C6C0005E0786800F03FF9786800F04EF97B6871
:102C7C0000221A77BB6803F01003002B20D0FB68EE
:102C8C0003F01003002B1BD07B681B686FF0100245
:102C9C001A617B6808221A777B681B68DB6903F46E
:102CAC004073002B03D0786800F026F905E07868B3
:102CBC0000F019F9786800F028F97B6800221A777F
:102CCC00BB6803F00103002B0CD0FB6803F001037D
:102CDC00002B07D07B681B686FF001021A617868C3
:102CEC00FEF788FCBB6803F08003002B0CD0FB685C
:102CFC0003F08003002B07D07B681B686FF0800209
:102D0C001A61786800F06FFABB6803F04003002B7F
:102D1C000CD0FB6803F04003002B07D07B681B68CA
:102D2C006FF040021A61786800F0F8F8BB6803F0A5
:102D3C002003002B0CD0FB6803F02003002B07D0E2
:102D4C007B681B686FF020021A61786800F042FA09
:102D5C0000BF1037BD4680BD80B584B000AF786031
:102D6C0039600023FB737B6893F83C30012B01D155
:102D7C000223B4E07B68012283F83C207B680222AA
:102D8C0083F83D207B681B689B68BB60BB6823F0A5
:102D9C007703BB60BB6823F47F43BB607B681B6815
:102DAC00BA689A603B681B68B3F5005F3ED0B3F518
:102DBC00005F00F28780B3F5805F00F08680B3F58A
:102DCC00805F7FD8702B1AD0702B7BD8602B50D0A3
:102DDC00602B77D8502B3CD0502B73D8402B58D02D
:102DEC00402B6FD8302B64D0302B6BD8202B60D07D
:102DFC00202B67D8002B5CD0102B5AD062E07B685C
:102E0C0018683B6899683B685A683B68DB6800F057
:102E1C006AF97B681B689B68BB60BB6843F07703EF
:102E2C00BB607B681B68BA689A604FE07B68186867
:102E3C003B6899683B685A683B68DB6800F053F95B
:102E4C007B681B689A687B681B6842F480429A60B6
:102E5C003CE07B6818683B6859683B68DB681A463D
:102E6C0000F0CAF87B681B685021184600F021F965
:102E7C002CE07B6818683B6859683B68DB681A462D
:102E8C0000F0E8F87B681B686021184600F011F927
:102E9C001CE07B6818683B6859683B68DB681A461D
:102EAC0000F0AAF87B681B684021184600F001F975
:102EBC000CE07B681A683B681B681946104600F0EA
:102ECC00F8F803E00123FB7300E000BF7B680122EC
:102EDC0083F83D207B68002283F83C20FB7B18465E
:102EEC001037BD4680BD80B483B000AF786000BFA2
:102EFC000C37BD4680BC704780B483B000AF78609F
:102F0C0000BF0C37BD4680BC704780B483B000AFA7
:102F1C00786000BF0C37BD4680BC704780B483B06E
:102F2C0000AF786000BF0C37BD4680BC7047000016
:102F3C0080B485B000AF786039607B681B68FB603B
:102F4C007B682B4A934207D07B68B3F1804F03D048
:102F5C007B68284A934208D1FB6823F07003FB601E
:102F6C003B685B68FA681343FB607B68204A9342BA
:102F7C0007D07B68B3F1804F03D07B681D4A934226
:102F8C0008D1FB6823F44073FB603B68DB68FA688C
:102F9C001343FB60FB6823F080023B685B691343BF
:102FAC00FB607B68FA681A603B689A687B68DA6237
:102FBC003B681A687B689A627B680D4A934203D11E
:102FCC003B681A697B681A637B6801225A617B68CB
:102FDC001B6903F00103002B05D07B681B6923F0F0
:102FEC0001027B681A6100BF1437BD4680BC704774
:102FFC00002C01400004004080B487B000AFF860A2
:10300C00B9607A60FB681B6A7B61FB681B6A23F002
:10301C000102FB681A62FB689B693B613B6923F008
:10302C00F0033B617B681B013A6913433B617B698D
:10303C0023F00A037B617A69BB6813437B61FB68ED
:10304C003A699A61FB687A691A6200BF1C37BD46FF
:10305C0080BC704780B487B000AFF860B9607A600C
:10306C00FB681B6A7B61FB681B6A23F01002FB6820
:10307C001A62FB689B693B613B6923F470433B61BB
:10308C007B681B033A6913433B617B6923F0A00304
:10309C007B61BB681B017A6913437B61FB683A69EE
:1030AC009A61FB687A691A6200BF1C37BD4680BC06
:1030BC00704780B485B000AF786039607B689B68DE
:1030CC00FB60FB6823F07003FB603A68FB681343FA
:1030DC0043F00703FB607B68FA689A6000BF143703
:1030EC00BD4680BC704780B487B000AFF860B96053
:1030FC007A603B60FB689B687B617B6923F47F4350
:10310C007B613B681A027B681A43BB6813437A697C
:10311C0013437B61FB687A699A6000BF1C37BD461C
:10312C0080BC704780B485B000AF786039607B6834
:10313C0093F83C30012B01D1022341E07B68012242
:10314C0083F83C207B68022283F83D207B681B6857
:10315C005B68FB607B681B689B68BB60FB6823F04B
:10316C007003FB603B681B68FA681343FB607B6869
:10317C001B68FA685A607B681B68144A934209D032
:10318C007B681B68B3F1804F04D07B681B68104AC6
:10319C0093420CD1BB6823F08003BB603B685B6837
:1031AC00BA681343BB607B681B68BA689A607B681B
:1031BC00012283F83D207B68002283F83C20002309
:1031CC0018461437BD4680BC704700BF002C014028
:1031DC000004004080B483B000AF786000BF0C37AF
:1031EC00BD4680BC704780B483B000AF786000BF30
:1031FC000C37BD4680BC704770B500260C4D0D4C8D
:10320C00641BA410A64209D100F022F800260A4D36
:10321C000A4C641BA410A64205D170BD55F8043BA2
:10322C0098470136EEE755F8043B98470136F2E72C
:10323C009832000898320008983200089C32000836
:10324C0003460244934200D1704703F8011BF9E78F
:10325C00F8B500BFF8BC08BC9E467047F8B500BF77
:08326C00F8BC08BC9E46704747
:103274000000000000000000010203040607080922
:1032840002030405060708090A0B0C0D0E0F1010A3
:043294000102000033
:0432980031010008F8
:04329C000D01000818
:1032A000010000000100000001000000000000001B
:1032B000010000000100000001000000000000000B
:1032C00001000000010000000100000000000000FB
:1032D00001000000010000000100000000000000EB
:1032E000C8000000C8000000C8000000C8000000BE
:1032F00001000000050000000300000002000000C3
:1033000000127A000A000000100000000100000016
:0400000508001BE5EF
:00000001FF
